S019000050574D20506F74656E63696F6D6574726F2E737265638F
S11300000C9434000C9446000C9446000C94460066
S11300100C9446000C9446000C9446000C94460044
S11300200C9446000C9446000C9446000C94A900D1
S11300300C9446000C949D000C9446000C944600CD
S11300400C9446000C9446000C9446000C94460014
S11300500C9446000C9448000C9446000C94460002
S11300600C9446000C94460011241FBECFEFD8E038
S1130070DEBFCDBF21E0A0E0B1E001C01D92A230FF
S1130080B207E1F70E9479000C9485020C940000F9
S11300901F920F920FB60F9211248F93EF93FF9339
S11300A08091790080930001EAE7F0E0808180612B
S11300B08083808180648083FF91EF918F910F9082
S11300C00FBE0F901F90189514B884B1826084B944
S11300D00895ECE7F0E01082808187668083EAE788
S11300E0F0E0108280818F608083808180688083CB
S11300F00895F8940E9464000E9469000E94B3006D
S1130100789480E090E00E94D100EAE7F0E08081FA
S1130110806480838091000190E00E94D100FACF36
S113012021E02093010104C090938900809388000A
S1130130209101012111F8CF08951F920F920FB65B
S11301400F921124109201010F900FBE0F901F9077
S113015018951F920F920FB60F9211240F900FBE95
S11301600F901F901895EFE6F0E0108283E08083F3
S11301708CE9809387008FE38093860087E08093E7
S113018089008FEC80938800A0E8B0E01C92E1E83D
S1130190F0E010828C9182688C9380818A618083E4
S11301A00895BC0180E090E00E948A0120E030E0E4
S11301B040E85BE30E94180220E030E04AEF54E498
S11301C00E94180220E030EE49EF54E40E94EF0050
S11301D00E945B01CB010E94900008955058BB27F8
S11301E0AA270E9406010C94DE010E94D00138F077
S11301F00E94D70120F039F49F3F19F426F40C949F
S1130200CD010EF4E095E7FB0C94C701E92F0E94A1
S1130210EF0158F3BA17620773078407950720F0B4
S113022079F4A6F50C9411020EF4E0950B2EBA2F76
S1130230A02D0B01B90190010C01CA01A0011124E8
S1130240FF27591B99F0593F50F4503E68F11A1694
S1130250F040A22F232F342F4427585FF3CF469525
S113026037952795A795F0405395C9F77EF41F1647
S1130270BA0B620B730B840BBAF09150A1F0FF0F11
S1130280BB1F661F771F881FC2F70EC0BA0F621FFD
S1130290731F841F48F4879577956795B795F795ED
S11302A09E3F08F0B0CF9395880F08F09927EE0F82
S11302B09795879508950E94F70188F09F5798F0C5
S11302C0B92F9927B751B0F0E1F0660F771F881F57
S11302D0991F1AF0BA95C9F714C0B13091F00E9471
S11302E01102B1E008950C941102672F782F88272A
S11302F0B85F39F0B93FCCF3869577956795B39598
S1130300D9F73EF490958095709561957F4F8F4F06
S11303109F4F0895E89409C097FB3EF4909580950B
S1130320709561957F4F8F4F9F4F9923A9F0F92FB7
S113033096E9BB279395F695879577956795B79535
S1130340F111F8CFFAF4BB0F11F460FF1BC06F5F1B
S11303507F4F8F4F9F4F16C0882311F096E911C02D
S1130360772321F09EE8872F762F05C0662371F04E
S113037096E8862F70E060E02AF09A95660F771F62
S1130380881FDAF7880F9695879597F9089597F956
S11303909F6780E870E060E008959FEF80EC089527
S11303A000240A9416161706180609060895002450
S11303B00A9412161306140605060895092E0394CA
S11303C0000C11F4882352F0BB0F40F4BF2B11F43E
S11303D060FF04C06F5F7F4F8F4F9F4F089557FD9D
S11303E09058440F551F59F05F3F71F04795880F9F
S11303F097FB991F61F09F3F79F087950895121636
S113040013061406551FF2CF4695F1DF08C01616E1
S113041017061806991FF1CF869571056105089492
S11304200895E894BB2766277727CB0197F90895A9
S11304300E942B020C94DE010E94D00138F00E942D
S1130440D70120F0952311F00C94C7010C94CD0131
S113045011240C9412020E94EF0170F3959FC1F3D2
S1130460950F50E0551F629FF001729FBB27F00D5E
S1130470B11D639FAA27F00DB11DAA1F649F6627B3
S1130480B00DA11D661F829F2227B00DA11D621F02
S1130490739FB00DA11D621F839FA00D611D221FBC
S11304A0749F3327A00D611D231F849F600D211DA0
S11304B0822F762F6A2F11249F5750409AF0F1F023
S11304C088234AF0EE0FFF1FBB1F661F771F881F8C
S11304D091505040A9F79E3F510580F00C94C701FC
S11304E00C9412025F3FE4F3983ED4F3869577951B
S11304F06795B795F795E7959F5FC1F7FE2B880F32
S1110500911D9695879597F90895F894FFCF6D
S9030000FC
