S015000050574D536572766F735F4C45442E7372656365
S11300000C9434000C9451000C9451000C94510045
S11300100C9451000C9451000C9451000C94510018
S11300200C9451000C9451000C9451000C94510008
S11300300C9451000C94E5000C9451000C94510064
S11300400C9451000C9451000C9451000C945100E8
S11300500C9451000C9453000C9451000C945100D6
S11300600C9451000C94510011241FBECFEFD8E022
S1130070DEBFCDBF11E0A0E0B1E0ECE9F5E002C0E5
S113008005900D92A230B107D9F721E0A2E0B1E0CA
S113009001C01D92A430B207E1F70E9498000C94AD
S11300A0CC020C9400001F920F920FB60F921124F1
S11300B08F93EF93FF938091790080930201EAE795
S11300C0F0E080818061808380910001813051F46F
S11300D082E080930001ECE7F0E010828081866684
S11300E0808309C081E080930001ECE7F0E0108296
S11300F0808187668083FF91EF918F910F900FBE6F
S11301000F901F90189514B884B1866084B908952F
S1130110ECE7F0E01082808187668083EAE7F0E014
S1130120108280818F6080838081806880830895BD
S1130130F8940E9483000E9488000E94F100789441
S113014061E080E090E00E94130162E080E090E0D2
S11301500E941301EAE7F0E08081806480838FE3EA
S11301609CE90197F1F700C000008091020161E071
S113017090E00E941301CAE7D0E0888180648883FC
S11301808FE39CE90197F1F700C000008091020120
S113019062E090E00E941301888180648883DFCF4D
S11301A021E0209303010CC0613021F49093890075
S11301B080938800623021F490938B0080938A00AE
S11301C0209103012111F0CF08951F920F920FB6D1
S11301D00F921124109203010F900FBE0F901F90E5
S11301E01895EFE6F0E0108281E080838CE980933B
S11301F087008FE38093860097E0909389008FECCB
S11302008093880090938B0080938A00A0E8B0E0EC
S11302101C92E1E8F0E010828C91826A8C938081D8
S11302208A6180830895CF93C62FBC0180E090E05B
S11302300E94D10120E030E040E85BE30E945F02CD
S113024020E030E04AEF54E40E945F0220E030EE08
S113025049EF54E40E9436010E94A201DC01CB0163
S11302606C2F0E94D000CF9108955058BB27AA2725
S11302700E944D010C9425020E94170238F00E943E
S11302801E0220F039F49F3F19F426F40C94140252
S11302900EF4E095E7FB0C940E02E92F0E9436025F
S11302A058F3BA17620773078407950720F079F4A7
S11302B0A6F50C9458020EF4E0950B2EBA2FA02D3F
S11302C00B01B90190010C01CA01A0011124FF27FF
S11302D0591B99F0593F50F4503E68F11A16F040FA
S11302E0A22F232F342F4427585FF3CF46953795F9
S11302F02795A795F0405395C9F77EF41F16BA0BBE
S1130300620B730B840BBAF09150A1F0FF0FBB1F6B
S1130310661F771F881FC2F70EC0BA0F621F731FB4
S1130320841F48F4879577956795B795F7959E3F11
S113033008F0B0CF9395880F08F09927EE0F9795A2
S1130340879508950E943E0288F09F5798F0B92F30
S11303509927B751B0F0E1F0660F771F881F991FF6
S11303601AF0BA95C9F714C0B13091F00E9458023E
S1130370B1E008950C945802672F782F8827B85F4E
S113038039F0B93FCCF3869577956795B395D9F74E
S11303903EF490958095709561957F4F8F4F9F4F58
S11303A00895E89409C097FB3EF490958095709564
S11303B061957F4F8F4F9F4F9923A9F0F92F96E9AD
S11303C0BB279395F695879577956795B795F11122
S11303D0F8CFFAF4BB0F11F460FF1BC06F5F7F4FBF
S11303E08F4F9F4F16C0882311F096E911C07723D1
S11303F021F09EE8872F762F05C0662371F096E8DA
S1130400862F70E060E02AF09A95660F771F881FA8
S1130410DAF7880F9695879597F9089597F99F6766
S113042080E870E060E008959FEF80EC0895002478
S11304300A941616170618060906089500240A9445
S113044012161306140605060895092E0394000CCB
S113045011F4882352F0BB0F40F4BF2B11F460FF5A
S113046004C06F5F7F4F8F4F9F4F089557FD905883
S1130470440F551F59F05F3F71F04795880F97FB64
S1130480991F61F09F3F79F087950895121613061E
S11304901406551FF2CF4695F1DF08C0161617064D
S11304A01806991FF1CF8695710561050894089582
S11304B0E894BB2766277727CB0197F908950E9414
S11304C072020C9425020E94170238F00E941E0248
S11304D020F0952311F00C940E020C9414021124B4
S11304E00C9459020E94360270F3959FC1F3950F44
S11304F050E0551F629FF001729FBB27F00DB11DA4
S1130500639FAA27F00DB11DAA1F649F6627B00D33
S1130510A11D661F829F2227B00DA11D621F739F1C
S1130520B00DA11D621F839FA00D611D221F749F2A
S11305303327A00D611D231F849F600D211D822F71
S1130540762F6A2F11249F5750409AF0F1F0882398
S11305504AF0EE0FFF1FBB1F661F771F881F9150C5
S11305605040A9F79E3F510580F00C940E020C9464
S113057059025F3FE4F3983ED4F3869577956795E7
S1130580B795F795E7959F5FC1F7FE2B880F911DEF
S10F05909695879597F90895F894FFCF8D
S105059C010058
S9030000FC
