:100000000C9434000C9451000C9451000C94510049
:100010000C9451000C9451000C9451000C9451001C
:100020000C9451000C945F010C9451000C945100FD
:100030000C9451000C940E010C9451000C9451003E
:100040000C9451000C9451000C9451000C945100EC
:100050000C9451000C9453000C9451000C945100DA
:100060000C9451000C94510011241FBECFEFD8E026
:10007000DEBFCDBF11E0A0E0B1E0E8E5F6E002C0F0
:1000800005900D92A230B107D9F721E0A2E0B1E0CE
:1000900001C01D92A630B207E1F70E94AD000C949A
:1000A0002A030C9400001F920F920FB60F92112496
:1000B0008F93EF93FF938091790080930201EAE799
:1000C000F0E080818061808380910001813051F473
:1000D00082E080930001ECE7F0E010828081866688
:1000E000808315C0823051F483E080930001ECE7F7
:1000F000F0E0108280818766808309C081E0809370
:100100000001ECE7F0E01082808185668083FF913A
:10011000EF918F910F900FBE0F901F90189514B80C
:1001200084B1866084B91AB88AB180648AB90895A6
:10013000EEE7F0E0108280E28083ECE7F0E01082EE
:10014000808187668083EAE7F0E0108280818F609B
:1001500080838081806880830895F8940E948F0056
:100160000E9498000E941A010E947F01789461E029
:1001700080E00E943C0162E080E00E943C01EAE7EE
:10018000F0E08081806480832FE788E391E0215054
:1001900080409040E1F700C0000061E080910201E2
:1001A0000E943C01CAE7D0E08881806488832FE701
:1001B00088E391E0215080409040E1F700C00000CA
:1001C00062E0809102010E943C0188818064888302
:1001D0002FE788E391E0215080409040E1F700C094
:1001E0000000809102010E949001888180648883D0
:1001F000CBCF21E0209303010CC0613021F4909318
:10020000890080938800623021F490938B00809362
:100210008A00209103012111F0CF08951F920F92BF
:100220000FB60F921124109203010F900FBE0F9082
:100230001F901895EFE6F0E0108281E080838CE952
:10024000809387008FE38093860097E090938900E6
:100250008FEC8093880090938B0080938A00A0E8B5
:10026000B0E01C92E1E8F0E010828C91826A8C93FD
:1002700080818A6180830895CF93C62F682F70E0B4
:1002800080E090E00E942F0220E030E040E85BE355
:100290000E94BD0220E030E04AEF54E40E94BD021B
:1002A00020E030EE49EF54E40E9494010E940002E5
:1002B000DC01CB016C2F0E94F900CF9108951F92B1
:1002C0000F920FB60F9211248F939F939091050177
:1002D00080910401981710F01BB802C080E48BB91C
:1002E000809105018F5F809305018FEF8093B200AD
:1002F0009F918F910F900FBE0F901F901895E0E780
:10030000F0E0108281E080831092B000E1EBF0E039
:1003100010828081876080838FEF8093B200089580
:100320008093040108955058BB27AA270E94AB016F
:100330000C9483020E94750238F00E947C0220F027
:1003400039F49F3F19F426F40C9472020EF4E095F0
:10035000E7FB0C946C02E92F0E94940258F3BA1741
:10036000620773078407950720F079F4A6F50C94CB
:10037000B6020EF4E0950B2EBA2FA02D0B01B90199
:1003800090010C01CA01A0011124FF27591B99F00B
:10039000593F50F4503E68F11A16F040A22F232F17
:1003A000342F4427585FF3CF469537952795A79567
:1003B000F0405395C9F77EF41F16BA0B620B730B0E
:1003C000840BBAF09150A1F0FF0FBB1F661F771F7F
:1003D000881FC2F70EC0BA0F621F731F841F48F434
:1003E000879577956795B795F7959E3F08F0B0CFBD
:1003F0009395880F08F09927EE0F979587950895A4
:100400000E949C0288F09F5798F0B92F9927B75106
:10041000B0F0E1F0660F771F881F991F1AF0BA95A8
:10042000C9F714C0B13091F00E94B602B1E008954E
:100430000C94B602672F782F8827B85F39F0B93F40
:10044000CCF3869577956795B395D9F73EF490955B
:100450008095709561957F4F8F4F9F4F0895E894D9
:1004600009C097FB3EF490958095709561957F4FFC
:100470008F4F9F4F9923A9F0F92F96E9BB279395AA
:10048000F695879577956795B795F111F8CFFAF4BA
:10049000BB0F11F460FF1BC06F5F7F4F8F4F9F4FEB
:1004A00016C0882311F096E911C0772321F09EE849
:1004B000872F762F05C0662371F096E8862F70E0AF
:1004C00060E02AF09A95660F771F881FDAF7880F89
:1004D0009695879597F9089597F99F6780E870E05A
:1004E00060E008959FEF80EC089500240A941616AA
:1004F000170618060906089500240A941216130612
:10050000140605060895092E0394000C11F488239F
:1005100052F0BB0F40F4BF2B11F460FF04C06F5FBB
:100520007F4F8F4F9F4F089557FD9058440F551F91
:1005300059F05F3F71F04795880F97FB991F61F065
:100540009F3F79F087950895121613061406551FDC
:10055000F2CF4695F1DF08C0161617061806991F48
:10056000F1CF86957105610508940895E894BB273D
:1005700066277727CB0197F908950E94D0020C9443
:1005800083020E94750238F00E947C0220F09523BD
:1005900011F00C946C020C94720211240C94B702AA
:1005A0000E94940270F3959FC1F3950F50E0551F80
:1005B000629FF001729FBB27F00DB11D639FAA27B8
:1005C000F00DB11DAA1F649F6627B00DA11D661F07
:1005D000829F2227B00DA11D621F739FB00DA11D28
:1005E000621F839FA00D611D221F749F3327A00DE2
:1005F000611D231F849F600D211D822F762F6A2F7E
:1006000011249F5750409AF0F1F088234AF0EE0FE2
:10061000FF1FBB1F661F771F881F91505040A9F70F
:100620009E3F510580F00C946C020C94B7025F3F22
:10063000E4F3983ED4F3869577956795B795F7954B
:10064000E7959F5FC1F7FE2B880F911D96958795C3
:0806500097F90895F894FFCF1B
:0206580001009F
:00000001FF
